:020000040800F2
:100000000000000041040008599200085B920008BB
:100010005D9200085F9200086192000800000000F5
:1000200000000000000000000000000063920008D3
:10003000A9170008000000004D1600086917000805
:100040006917000869170008691700086917000890
:100050006917000869170008691700086917000880
:100060006917000869170008691700086917000870
:100070006917000869170008691700086917000860
:1004000010B5054C237833B9044B13B10448AFF34E
:1004100000800123237010BD1002002000000000A6
:1004200004EB000808B5034B1BB103490348AFF3C5
:10043000008008BD000000001402002004EB00084A
:1004400072B6DFF840D01048016841F470010160D5
:100450000E490F4A0F4B914204D053F8040B41F858
:10046000040BF8E74FF000000B490C4A914202D010
:1004700041F8040BFAE708F0C9FE0AF0BFFC08F0E7
:1004800099FEFEE70000012088ED00E0000000205A
:10049000100200206809030810020020B02E00207E
:1004A00010F8012B11F8013B012A28BF9A42F7D01E
:1004B000D01A7047034613F8012B002AFBD1181AF3
:1004C000013870470000000000000000000000003C
:1004D00001F0FF01102A2BDB10F0070F08D010F8F5
:1004E000013B013A8B422DD010F0070F42B3F6D1F9
:1004F000F0B441EA012141EA014122F007047FF012
:1005000000070023F0E80256083C85EA010586EA68
:10051000010685FA47F5A3FA87F586FA47F6A5FAA4
:1005200087F68EB9EED1F0BC01F0FF0102F00702B0
:1005300032B110F8013B013A83EA010313B1F8D15B
:100540000020704701387047002D06BF354603383C
:10055000073815F0010F07D1013015F4807F02BF75
:10056000013015F4C03F0130F0BC0138704700BFC6
:1005700081F0004102E000BF83F0004330B54FEA54
:1005800041044FEA430594EA050F08BF90EA020FC1
:100590001FBF54EA000C55EA020C7FEA645C7FEA54
:1005A000655C00F0E2804FEA5454D4EB5555B8BF77
:1005B0006D420CDD2C4480EA020281EA030382EAE8
:1005C000000083EA010180EA020281EA0303362D7A
:1005D00088BF30BD11F0004F4FEA01314FF4801C4D
:1005E0004CEA113102D0404261EB410113F0004F5F
:1005F0004FEA03334CEA133302D0524263EB430316
:1006000094EA050F00F0A780A4F10104D5F1200EB3
:100610000DDB02FA0EFC22FA05F2801841F100010E
:1006200003FA0EF2801843FA05F359410EE0A5F1E2
:1006300020050EF1200E012A03FA0EFC28BF4CF013
:10064000020C43FA05F3C01851EBE37101F00045C9
:1006500007D54FF0000EDCF1000C7EEB00006EEBD6
:100660000101B1F5801F1BD3B1F5001F0CD3490860
:100670005FEA30004FEA3C0C04F101044FEA4452B7
:1006800012F5800F80F09A80BCF1004F08BF5FEA3E
:10069000500C50F1000041EB045141EA050130BD1E
:1006A0005FEA4C0C404141EB010111F4801FA4F1C1
:1006B0000104E9D191F0000F04BF01460020B1FA16
:1006C00081F308BF2033A3F10B03B3F120020CDA4E
:1006D0000C3208DD02F1140CC2F10C0201FA0CF02C
:1006E00021FA02F10CE002F11402D8BFC2F1200C91
:1006F00001FA02F120FA0CFCDCBF41EA0C01904047
:10070000E41AA2BF01EB0451294330BD6FEA04048F
:100710001F3C1CDA0C340EDC04F11404C4F120027A
:1007200020FA04F001FA02F340EA030021FA04F38C
:1007300045EA030130BDC4F10C04C4F1200220FAE3
:1007400002F001FA04F340EA0300294630BD21FA21
:1007500004F0294630BD94F0000F83F4801306BFE7
:1007600081F480110134013D4EE77FEA645C18BFDB
:100770007FEA655C29D094EA050F08BF90EA020F72
:1007800005D054EA000C04BF1946104630BD91EA6A
:10079000030F1EBF0021002030BD5FEA545C05D16D
:1007A0004000494128BF41F0004130BD14F58004AC
:1007B0003CBF01F5801130BD01F0004545F0FE4120
:1007C00041F470014FF0000030BD7FEA645C1ABF55
:1007D000194610467FEA655C1CBF0B46024650EA8C
:1007E000013406BF52EA033591EA030F41F40021B8
:1007F00030BD00BF90F0000F04BF0021704730B53E
:100800004FF4806404F132044FF000054FF0000112
:1008100050E700BF90F0000F04BF0021704730B5D3
:100820004FF4806404F1320410F0004548BF4042A8
:100830004FF000013EE700BF42004FEAE2014FEAFD
:1008400031014FEA02701FBF12F07F4393F07F4FD8
:1008500081F06051704732F07F4208BF704793F0DB
:100860007F4F04BF41F40021704730B54FF46074EE
:1008700001F0004521F000411CE700BF50EA0102F1
:1008800008BF704730B54FF000050AE050EA01029A
:1008900008BF704730B511F0004502D5404261EB0A
:1008A00041014FF4806404F132045FEA915C3FF44B
:1008B000D8AE4FF003025FEADC0C18BF03325FEAE8
:1008C000DC0C18BF033202EBDC02C2F1200300FA99
:1008D00003FC20FA02F001FA03FE40EA0E0021FABE
:1008E00002F11444BDE600BF70B54FF0FF0C4CF4AC
:1008F000E06C1CEA11541DBF1CEA135594EA0C0F5E
:1009000095EA0C0F00F0DEF82C4481EA030621EA98
:100910004C5123EA4C5350EA013518BF52EA0335D3
:1009200041F4801143F4801338D0A0FB02CE4FF085
:100930000005E1FB02E506F00042E0FB03E54FF0B5
:100940000006E1FB03569CF0000F18BF4EF0010EAD
:10095000A4F1FF04B6F5007F64F5407404D25FEAA9
:100960004E0E6D4146EB060642EAC62141EA55515C
:100970004FEAC52040EA5E504FEACE2EB4F1FD0C9E
:1009800088BFBCF5E06F1ED8BEF1004F08BF5FEA1C
:10099000500E50F1000041EB045170BD06F00046CE
:1009A00046EA010140EA020081EA0301B4EB5C047B
:1009B000C2BFD4EB0C0541EA045170BD41F4801173
:1009C0004FF0000E013C00F3AB8014F1360FDEBF98
:1009D000002001F0004170BDC4F10004203C35DA74
:1009E0000C341BDC04F11404C4F1200500FA05F3F7
:1009F00020FA04F001FA05F240EA020001F0004298
:100A000021F0004110EBD37021FA04F642EB06010D
:100A10005EEA430E08BF20EAD37070BDC4F10C0437
:100A2000C4F1200500FA04F320FA05F001FA04F2FB
:100A300040EA020001F0004110EBD37041F10001E7
:100A40005EEA430E08BF20EAD37070BDC4F12005F2
:100A500000FA05F24EEA020E20FA04F301FA05F25A
:100A600043EA020321FA04F001F0004121FA04F202
:100A700020EA020000EBD3705EEA430E08BF20EAD2
:100A8000D37070BD94F0000F0FD101F0004640000C
:100A900041EB010111F4801F08BF013CF7D041EA8E
:100AA000060195F0000F18BF704703F00046520092
:100AB00043EB030313F4801F08BF013DF7D043EA63
:100AC0000603704794EA0C0F0CEA135518BF95EA19
:100AD0000C0F0CD050EA410618BF52EA4306D1D1A0
:100AE00081EA030101F000414FF0000070BD50EABF
:100AF000410606BF1046194652EA430619D094EA49
:100B00000C0F02D150EA013613D195EA0C0F05D132
:100B100052EA03361CBF104619460AD181EA030186
:100B200001F0004141F0FE4141F470014FF000003E
:100B300070BD41F0FE4141F4780170BD70B54FF0D9
:100B4000FF0C4CF4E06C1CEA11541DBF1CEA135559
:100B500094EA0C0F95EA0C0F00F0A7F8A4EB05043B
:100B600081EA030E52EA03354FEA013100F0888032
:100B70004FEA03334FF0805545EA131343EA1263FB
:100B80004FEA022245EA111545EA10654FEA0026B0
:100B90000EF000419D4208BF964244F1FD0404F569
:100BA000407402D25B084FEA3202B61A65EB0305C5
:100BB0005B084FEA32024FF480104FF4002CB6EB82
:100BC000020E75EB030E22BFB61A754640EA0C0002
:100BD0005B084FEA3202B6EB020E75EB030E22BF42
:100BE000B61A754640EA5C005B084FEA3202B6EB83
:100BF000020E75EB030E22BFB61A754640EA9C0042
:100C00005B084FEA3202B6EB020E75EB030E22BF11
:100C1000B61A754640EADC0055EA060E18D04FEACF
:100C2000051545EA16754FEA06164FEAC30343EA6F
:100C300052734FEAC2025FEA1C1CC0D111F4801F3C
:100C40000BD141EA00014FF000004FF0004CB6E735
:100C500011F4801F04BF01430020B4F1FD0C88BFD4
:100C6000BCF5E06F3FF6AFAEB5EB030C04BFB6EBDF
:100C7000020C5FEA500C50F1000041EB045170BDD2
:100C80000EF0004E4EEA113114EB5C04C2BFD4EBFF
:100C90000C0541EA045170BD41F480114FF0000E83
:100CA000013C90E645EA060E8DE60CEA135594EAFF
:100CB0000C0F08BF95EA0C0F3FF43BAF94EA0C0F02
:100CC0000AD150EA01347FF434AF95EA0C0F7FF477
:100CD00025AF104619462CE795EA0C0F06D152EACB
:100CE00003353FF4FDAE1046194622E750EA4106AF
:100CF00018BF52EA43067FF4C5AE50EA41047FF4C0
:100D00000DAF52EA43057FF4EBAE12E74FF0FF3C24
:100D100006E000BF4FF0010C02E000BF4FF0010CF5
:100D20004DF804CD4FEA410C7FEA6C5C4FEA430C6E
:100D300018BF7FEA6C5C1BD001B050EA410C0CBFBD
:100D400052EA430C91EA030F02BF90EA020F00201F
:100D5000704710F1000F91EA030F58BF994208BF86
:100D600090422CBFD8176FEAE37040F00100704743
:100D70004FEA410C7FEA6C5C02D150EA013C07D19A
:100D80004FEA430C7FEA6C5CD6D152EA033CD3D0E5
:100D90005DF8040B704700BF8446104662468C46DF
:100DA0001946634600E000BF01B5FFF7B7FF002812
:100DB00048BF10F1000F01BD4DF808EDFFF7F4FF3B
:100DC0000CBF012000205DF808FB00BF4DF808EDC6
:100DD000FFF7EAFF34BF012000205DF808FB00BFE9
:100DE0004DF808EDFFF7E0FF94BF012000205DF80B
:100DF00008FB00BF4DF808EDFFF7CEFF94BF0120C0
:100E000000205DF808FB00BF4DF808EDFFF7C4FFB8
:100E100034BF012000205DF808FB00BF4FEA410C01
:100E20007FEA6C5C02D150EA013C0AD14FEA430CE4
:100E30007FEA6C5C02D152EA033C02D14FF0000021
:100E400070474FF0010070474FEA410212F500125F
:100E500015D211D56FF47873B3EB625212D94FEA01
:100E6000C12343F0004343EA505311F0004F23FAEB
:100E700002F018BF404270474FF00000704750EA40
:100E8000013005D111F0004008BF6FF000407047FD
:100E90004FF00000704700BF4FEA4102B2F1E0435B
:100EA00024BFB3F5001CDCF1FE5C0DD901F0004C51
:100EB0004FEAC0024CEA5070B2F1004F40EB8300A1
:100EC00008BF20F00100704711F0804F21D113F1CD
:100ED0003872BCBF01F00040704741F480114FEA06
:100EE0005252C2F11802C2F1200C10FA0CF320FA8F
:100EF00002F018BF40F001004FEAC1234FEAD323AC
:100F000003FA0CFC40EA0C0023FA02F34FEA430315
:100F1000CCE77FEA625307D150EA01331EBF4FF09E
:100F2000FE4040F44000704701F0004040F0FE40B9
:100F300040F40000704700BF53B94AB9002908BF08
:100F400000281CBF4FF0FF314FF0FF3000F072B9A6
:100F5000ADF1080C6DE904CE00F006F8DDF804E010
:100F6000DDE9022304B070472DE9F047089E0446EE
:100F70008846002B4BD18A42154667D9B2FA82F2D5
:100F80004AB1C2F1200701FA02F320FA07F79540AF
:100F900047EA030894404FEA154E230CB8FBFEF7CE
:100FA0001FFA85FC0EFB178843EA084307FB0CF188
:100FB000994209D9EB1807F1FF3080F01B81994263
:100FC00040F21881023F2B445B1AA4B2B3FBFEF03F
:100FD0000EFB103344EA034400FB0CFCA44509D982
:100FE0002C1900F1FF3380F00781A44540F2048101
:100FF00002382C4440EA0740A4EB0C0400271EB141
:10100000D4400023C6E900433946BDE8F0878B424F
:1010100009D9002E00F0EB800027C6E90001384610
:101020003946BDE8F087B3FA83F7002F47D18B42EA
:1010300002D3824200F2FA80841A61EB030301209A
:101040009846002EE0D0C6E90048DDE702B9FFDE91
:10105000B2FA82F2002A40F08F80491B4FEA154E07
:101060001FFA85F80127B1FBFEFC230C0EFB1C11B7
:1010700043EA014308FB0CF1994207D9EB180CF144
:10108000FF3002D2994200F2CD808446591AA3B2B1
:10109000B1FBFEF00EFB101443EA044408FB00F819
:1010A000A04507D92C1900F1FF3302D2A04500F268
:1010B000B6801846A4EB080440EA0C409FE7C7F14D
:1010C000200CBB4022FA0CFE4EEA030E01FA07F494
:1010D00020FA0CF521FA0CF34FEA1E482543B3FB26
:1010E000F8F92C0C08FB19331FFA8EFA44EA034373
:1010F00009FB0AF49C4202FA07F200FA07F10BD945
:101100001EEB030309F1FF3080F087809C4240F220
:101110008480A9F1020973441B1BADB2B3FBF8F044
:1011200008FB103345EA034400FB0AFAA24508D93C
:101130001EEB040400F1FF336BD2A24569D90238DB
:10114000744440EA0940A0FB0289A4EB0A044C4520
:10115000C2464B4654D351D0002E69D0B1EB0A059C
:1011600064EB030404FA0CFCFD40FC404CEA05056A
:10117000C6E90054002747E7C2F1200320FA03F72D
:10118000954001FA02F021FA03F34FEA154E384375
:10119000010CB3FBFEF71FFA85F80EFB173341EA8B
:1011A000034107FB08F38B4204FA02F407D96918DC
:1011B00007F1FF3C2FD28B422DD9023F2944CB1A95
:1011C00081B2B3FBFEF00EFB103341EA034100FB9A
:1011D00008F38B4207D9691800F1FF3C17D28B4204
:1011E00015D902382944C91A40EA07473BE7374670
:1011F000304609E70746E7E61846FBE64145ABD22D
:10120000B8EB020A69EB0E0201381346A4E7604608
:10121000E9E7184695E76746D1E781467CE702385B
:101220002C4447E7ACF1020C2B442FE7384608E783
:101230003746E9E6704700BF2DE9F0410025076811
:10124000056006468846144610465AB1FFF732F943
:10125000234622189A42194606D800231846A2426D
:1012600009D83060BDE8F08109780133202908BF32
:1012700003F8015CEEE7217829B123B9B842BCBF7D
:1012800048F82040013014F8013BE8E730B1C0E9EC
:101290000012009AC0E90223002070474FF0FF308F
:1012A0007047F8B50F460546002844D0002942D0C3
:1012B000002A40D0D0E90140A0423FD0002C3DDDC3
:1012C000261A9642A8BF1646EA68104484420FDAEE
:1012D000002E0BDD90FBF4F22B6804FB1200184487
:1012E000324609F0D3FDAB683344AB603046F8BDFD
:1012F000821994421DDA2B68241A2246184409F0F8
:10130000C5FDAB6823442744AB60341B002CEDDDE6
:10131000D5E902306A68184490FBF2F302FB13002F
:101320002B6822461844394609F0B0FDAB682344C7
:10133000DBE73446EAE74FF0FF36D7E70026D5E78C
:10134000F8B50B460446002839D0002937D0002ACA
:1013500035D085687DB34668002E33DD9542A8BF41
:101360001546C168721B914227DB761A002E24DDD8
:10137000006832460144184609F088FDE2680346D9
:101380006068324492FBF0F100FB1122E260A26837
:10139000921BA260AF1B3344002F0CDD2068E16874
:1013A0003A460144184609F071FDE3683B44E360A6
:1013B000A368DF1BA7602846F8BD2F46ECE74FF077
:1013C000FF35F8E70025F6E708B1806870474FF071
:1013D000FF30704720B10023C0E902331846704740
:1013E0004FF0FF3070470000014B1878704700BF86
:1013F0002C02002005289ABF024B53F82000024817
:10140000704700BFC8EB0008C0EB0008044A13682F
:1014100013B91060184670474FF0FF30704700BF97
:101420003002002010B4074C24683CB164682CB131
:1014300024681CB1A4465DF8044B604700205DF8A9
:10144000044B704730020020044B1B6823B15B68DB
:1014500013B1DB6803B11847704700BF30020020AA
:10146000044B1B6823B15B6813B11B6903B11847B8
:101470000020704730020020044B1B6823B15B68DA
:1014800013B15B6903B11847002070473002002098
:10149000044B1B6823B15B6813B19B6903B1184708
:1014A0000020704730020020044B1B6823B15B68AA
:1014B00013B1DB6903B118470020704730020020E8
:1014C000044B1B6823B15B6813B11B6A03B1184757
:1014D0000020704730020020044B1B6823B15B687A
:1014E00013B15B6A03B11847002070473002002037
:1014F000044B1B6823B15B6813B19B6A03B11847A7
:101500000020704730020020044B1B6823B15B6849
:1015100013B1DB6A03B11847002070473002002086
:10152000044B1B6823B15B6813B11B6C03B11847F4
:10153000002070473002002038B1044B1B6823B1F3
:101540005B6813B15B6C03B1184770473002002031
:10155000044B1B6823B15B6813B19B6C03B1184744
:10156000002070473002002038B501FB00F420460F
:1015700000F0D4FA054618B12246002109F091FC8A
:10158000284638BD054B1B6823B15B6813B1DB6C83
:1015900003B1184700200021704700BF300200202F
:1015A000054B1B6823B15B6813B11B6D03B1184772
:1015B0004FF0FF30704700BF3002002008B500F048
:1015C000A5FA08BD72B615481549026841EA02013C
:1015D000016014484FF00101016013484168016047
:1015E00001688A884FF0100342EA03028A80D1F82A
:1015F00000C04FF002030CF1240C0CF1040CDCF8D9
:101600000000DCF814E0DCF818200CF1200C8CF35E
:10161000098862B683F314881047000020ED00E0CB
:101620000000FFFF642600205C260020EFF31080FE
:1016300072B6704780F310887047000002484FF080
:10164000805101607047000004ED00E0EFF3108C62
:1016500072B6184A126822B12DE900509047BDE8D1
:101660000050EFF309801EF0100F01D120ED108B18
:1016700040F804ED20E9F01F0F4D4FF010082E68E0
:101680003060B78827EA0807B780686828608788CD
:1016900047EA080787800168B1E8F01F51F804EBBA
:1016A0001EF0100F01D1B1EC108B81F309888CF37F
:1016B000108870473C0200205C26002037B5184D8A
:1016C0002B68B3F57A7F27D30024164B009422466B
:1016D00007214FF0FF3000F07DF84FF47A722B684D
:1016E000B3FBF2F3104A1360104A013B00200021C3
:1016F000B3F1807FC2E9000110D20D4A53600D4B57
:10170000F02183F823100723946013600A4B012211
:101710001A60204603B030BD0848FBE70848F9E7E7
:1017200024000020D91B00082026002018260020B5
:1017300010E000E000ED00E03802002000040002AC
:101740000204000208B505480AF010F8EFF305821C
:10175000034904480AF00AF8FEE700BF18EC000845
:1017600004EC00081FEC000810B50D4CFFF75EFFFD
:10177000236801332360FFF75DFFEFF30583094A18
:101780000F3B52F823304BB19847FFF74FFF2368C8
:10179000013B2360BDE81040FFF74CBFFFF7D2FFCD
:1017A000340200205022002008B5FFF7CBFF0000D4
:1017B000054B064A9A60D968054A21F4E06109049C
:1017C000090C0A43DA60704700ED00E000000008F1
:1017D0000007FA0570B504460D461E460BB3A0F18E
:1017E000F003F2331FD907291FD8FFF71FFF621C30
:1017F000114B43F8226062B22D01002AE4B2EDB22F
:1018000015DB012304F01F0403FA04F451090B4B08
:1018100043F82140134483F80053FFF70BFF0020E7
:1018200070BD0748FCE70748FAE70748F8E704F007
:101830000F04064B1D55F0E75022002000E100E0A8
:1018400001090002000900020509000214ED00E090
:1018500072B6FEE7FFF7F2BE10B5FFF7E7FE0446EB
:1018600000F06AFF094B283858601B6898422046F0
:1018700008D0074B1B882BB9FFF7DCFEBDE81040F2
:10188000FFF7DCBEBDE81040FFF7D4BE5C260020A9
:101890005826002038B5D0E9022305464FF0CA315A
:1018A00018469C1809F0FDFA4FF0CC3202604FF058
:1018B00005334FF0043244E912234FF006314FF064
:1018C000073344E910134FF008304FF0093344E96F
:1018D0000E034FF0103C4FF0113344E90CC34FF0AE
:1018E000000E6FF0020344E90AE32B6944F8203C40
:1018F0004FF001324FF0023344E907234FF0033138
:101900004FF0123344E90513064B44F80C3C064BE8
:1019100044F8083C4FF0807344F8043C483C2C6089
:1019200038BD00BF51180008FD24000810B508217B
:101930000446482002F0D4F8E168044B0144E16019
:1019400008221868BDE8104001F08FBC1426002062
:1019500038B5084B1B684BB9FFF768FE064BD3E957
:101960000045FFF767FE2046294638BD00240025C4
:10197000F9E700BF3402002018260020084600F0D6
:10198000CDB80846114600F0B9B80846114600F037
:10199000C7B8084600F0C0B80020704792B289B2BC
:1019A000FFF718BFFFF7D4BF024B0146186801F0DC
:1019B00063BC00BF14260020011E03DD024B186823
:1019C00001F043BC002070471426002008B501F048
:1019D0009FF8B0FA80F0400908BD08B501F04CF856
:1019E000B0FA80F0400908BD08B501F06BF8B0FA14
:1019F00080F0400908BD000007B592B200920023B4
:101A0000024689B2044800F0E5FEB0FA80F04009D1
:101A100003B05DF804FB00BF2DEC000808B501F031
:101A200033F9B0FA80F0400908BD08B501F0F8F9C3
:101A3000B0FA80F0400908BD08B501F06FF9B0FABE
:101A400080F0400908BD08B593B289B20246184635
:101A500001F0DAF8B0FA80F0400908BD08B501F0ED
:101A60008DFAB0FA80F0400908BD08B501F04EFBD0
:101A7000B0FA80F0400908BD08B54FF0FF3101F021
:101A8000B9FAB0FA80F0400908BD08B501F038FA9B
:101A9000B0FA80F0400908BD00F0C4BD08B500F000
:101AA0003DFBBDE8084000F075BC08B530B100F062
:101AB00071FC003018BF0120404208BD4FF0FF30DC
:101AC000FBE7F0B589B006460D4617460021122205
:101AD0000DF10E001C4609F0E4F90F9B049702A9D2
:101AE00001A8ADF80C3006960295059400F0E6FBCF
:101AF00010B9019809B0F0BD0020FBE7024B0A467F
:101B00000146186801F0B6BB142600200148FFF713
:101B10007DBC00BF38EC0008FFF70EBDFFF700BD2D
:101B2000FFF722BDFFF714BD10B5FFF7C7FD044650
:101B300038B1054809F01AFE044809F09FFE204616
:101B400010BDFFF73FFDFAE718EC0008DCEC0008D9
:101B50001C4B10B510221A6001F050FB044640B136
:101B6000194809F003FE2146184809F0FFFD2046F8
:101B700010BDFFF71DFE00F06FFA044630B11248A9
:101B800009F0F4FD124809F079FEF0E700F0D2FA0E
:101B900001F00EF804460028E9D101F08DF9044661
:101BA0000028E4D100F0E6FD044620B1064809F023
:101BB000DDFD0848E7E700F02FF8BDE8104000F031
:101BC000CBBB00BF5426002018EC00089FEC000897
:101BD000B9EC0008CAEC00080A490B48D1E9002317
:101BE0002DE90048006812F1010B43F1000CC1E936
:101BF00000BC08B9BDE8008800F016F8BDE8004850
:101C000000F012B91826002038020020014BD3E959
:101C10000001704718260020024B00221A600A2299
:101C2000DA807047302600200A4B1A680A4B198860
:101C30000A4B1868904204D01A60DA88013A0A44C4
:101C40009A809A888A4203D100221A6000F0B2BCBE
:101C5000704700BF5C260020182600203026002098
:101C6000D0E900231A60026853600023C0E9003302
:101C70007047FEE710B52B4C2368DB681B68B3F197
:101C8000CC3F08D0284809F071FD236827481A691D
:101C9000596A09F06BFD62681168D368994203D9EB
:101CA00092681344994211D91F4809F05FFD636897
:101CB0001F481A69596A09F059FD1B4809F056FD79
:101CC00063681C48DA68196809F050FD1A4B6168AE
:101CD0001A780C69496A03EB420003EB4212448014
:101CE000163201F1200051F8044B42F8044B8142B6
:101CF000F9D11A7803EB42100132D2B20A2A0CBF92
:101D00005A781A704FF0000102BF62F07F0219701A
:101D10005A700A4B80F835101B6813B1BDE81040AB
:101D2000184710BD5C26002018EC000884EE00085F
:101D3000ACEE0008CEEE0008702600204002002025
:101D400083885B0770B504460D460FD500F1280661
:101D5000304600F0D1FCA388E58043F00403A38063
:101D600029463046BDE8704000F0AABCE18070BD55
:101D7000F0B51E4C11F01F024FEA5113A1882668DE
:101D8000114408BF03F1FF3301F01F0106EBC10648
:101D900023F0784343EAC16383637368B34200F17D
:101DA000300707D11B685A68C0E90C325A681760BF
:101DB0005F60F0BD303B9A6B816B22F0784421F07C
:101DC0007845AC420BD85A6B01F078412C1B21436B
:101DD00096428163A2F13003EDD11B6BE3E702F081
:101DE0007842641B22439A63F7E700BF482600202D
:101DF00010B40C4BD0E90D411B68CA0E03EBC203B3
:101E00009C4209D0A26821F0784122F078430B442B
:101E100002F078421343A36030305DF8044BFFF7C3
:101E20001FBF00BF48260020294AF8B59588013514
:101E300005F01F031568938005EBC3056C68AC4281
:101E400044D0303C002604F13000A84206D0A36BF9
:101E5000A18833F0784707D0013BA363002E35D02B
:101E6000BDE8F840FFF7F8BCFFF7FAFE0B0718D5FE
:101E7000A38823F00803A38004F12800FFF7F0FEF5
:101E8000C4E906778B0709D4A388E18843F00403EB
:101E9000A38004F1280000F013FC01266C68303C9C
:101EA000D1E7480504D5A38823F48063A380E9E73C
:101EB0008A0407D504F12800FFF7D2FEA38823F493
:101EC0000053F3E7A38823F02003EFE7F8BD00BF3A
:101ED00048260020C10615D4420715D4830615D420
:101EE000010706D510F0400F0B4B0C4808BF1846F1
:101EF000704782070CD483040CD510F0400F084BB8
:101F00000848F3E708487047084870470848704792
:101F100008487047084870472BED00080FED00088F
:101F200026ED00080AED0008EEEC0008F6EC0008CB
:101F3000FCEC000802ED00081BED00085423584398
:101F4000104B196810B50C18E3681A68B2F1CC3F51
:101F50000DD108581A1D904203D8A0680344981A5E
:101F600010BD1168B1F1CA3FF7D10432F3E706485A
:101F700009F0FCFB616A054809F0F8FB4FF0FF30FF
:101F8000EEE700BF5026002018EC000857EE0008CE
:101F90002DE9F04F2848DFF8B890DFF8B8A08BB0F3
:101FA00009F0E4FB254809F0E1FB254809F0DEFBD8
:101FB000224809F0DBFB0025D9F80030AB4203D8FA
:101FC00000200BB0BDE8F08F1E4B5426D3F80080E4
:101FD0006E4308EB0604A088C30727D4E38809935F
:101FE000FFF778FF2769A16808903846D4F824B035
:101FF0000791FFF7A3FFA36C0593E368049358F8D8
:1020000006600799089A0191CDE902060092099BA2
:102010003A465946504609F0A9FBA36943B1D9880D
:10202000094809F0A3FB094809F028FC0135C3E77A
:102030004FF6FF71F4E700BF30ED0008CBEF00086A
:10204000A5ED00085026002050EE0008CCEF000857
:102050005426002018EE0008274B1A6870B5542447
:10206000264E274D306802FB0444214601F0EDF86E
:10207000286000283ED02246002108F012FF214BA4
:10208000214AC3E90033214BC2E90022C3E90033EE
:102090002B68002128330125106843F8181C446878
:1020A00023F8245CC3E9000401314468102923604B
:1020B000436003F15403EFD1154B0025C3E90055EC
:1020C00000F0E8FA4FF48071306801F0BEF8044681
:1020D00080B14FF48072294608F0E3FE0D4B1C607E
:1020E0009D8004F58073C4E9004408349C42FAD111
:1020F000002070BD0848FCE754260020142600206C
:1021000050260020C82700206826002040260020F6
:102110005C2600204826002000020003034B1B68B9
:102120000BB1186970470248704700BF5C26002059
:102130000702000208B5084B4FF4AB7218460021A5
:1021400008F0AFFE0A22054B4270054A1A60054BA3
:1021500000221A6008BD00BF702600203C0200204B
:10216000751C0008400200202DE9F0470E4680460D
:1021700000287FD000297FD00B69002B7ED00B6810
:10218000002B7DD08A881F2A7CD802D13F4A9342F7
:1021900078D1F36813B94FF43473F3600821F06811
:1021A00001F09EFCB0F5987FF0606DD3FFF73EFA2A
:1021B000DFF80091364DDFF800A10746D9F804405A
:1021C0004C451CD16C68AC4252D02046FFF748FD0C
:1021D0003846FFF72FFA304654F8187CFFF7A6FB75
:1021E00000BBFFF723FA6B68C4E900536B681C60FF
:1021F0006C60284D07463846FFF71CFA35E020464C
:10220000FFF72EFD6B6854F81C1CDAF80000C4E9D7
:1022100000536B681C606C6001F02EF8002344F8DA
:102220001C3CCBE7B36844F8083CF36844F8203C16
:10223000022324F8243CB38824F8223C336844F871
:10224000143C4FF0FF3300256361336944F81C0CE4
:1022500044E90455256244F8043CA5623146A4F1E2
:102260002800FFF717FBC8F800702846BDE8F08784
:10227000094DC0E7094DF8E7094DF6E7094DF4E7C8
:10228000094DF2E7094DF0E7094DEEE7731C000830
:10229000682600200002000311020002070200026B
:1022A0000102000205020002040200020302000211
:1022B00006020002402600201426002070B50646C3
:1022C00086B000293BD00C460FCC6D460FC594E874
:1022D000030085E8030069463046FFF745FF0546E1
:1022E00030BB184B34681B68542202FB0434FFF7E0
:1022F0009DF9A388E18823F0020343F00403A3803F
:10230000064604F1280000F0DBF900F015FA0E4A49
:102310000E4B1268283858606AB10D4A128852B9BB
:102320001B68984207D03046FFF784F9FFF792FA0E
:10233000284606B070BD3046FFF77CF9F8E7054D3A
:10234000F6E700BF50260020642600205C2600200F
:1023500058260020010200027FB5122200210DF153
:10236000060008F09EFD084B00934FF400730393A2
:10237000064B049369461F230548ADF80430FFF768
:102380009DFF07B05DF804FB731C000878EE0008A1
:10239000382600202DE9F84F4B4B1B688342074637
:1023A00000F08C80494B1B68834200F08980484BC9
:1023B0001A6882429B4640F28580FFF737F98046D3
:1023C000FFF7ACFE874202BF424B00221A80424B0D
:1023D0001A68542404FB07249A46A58815F00102C4
:1023E00005D04046FFF726F93C48BDE8F88FE906DE
:1023F00003D5384B198801B11A806B0704F1280600
:1024000041D5304600F078F9A38823F00403A38077
:1024100015F0600F02D02046FFF7EAFCA38823F0F6
:10242000020343F00103A3804FF000094FF0FF3394
:10243000E363C4F8489000F07FF9A288284928385F
:1024400012F01005486026D0264B18684368C4E98E
:102450000A0343681E604660DBF80030DAF80000CB
:10246000542505FB03030B609A80E268DA60626A18
:102470005A621F6101234046A380FFF7DBF8FFF794
:10248000E9F94846B1E742F208031D42C0D03046A0
:10249000FFF7E6FBBCE70123A380134BE1685A6812
:1024A000C4E90A3216605E60104B186800F0E4FE62
:1024B0004046E560FFF7BEF8284696E70C4894E7EB
:1024C0000C4892E70C4890E7382600203C26002074
:1024D0005426002058260020502600200A02000220
:1024E0005C260020402600206826002014260020BC
:1024F000140200022102000207020002064B10B57E
:102500001B68542404FB00346369206A98472069DF
:10251000BDE81040FFF73EBF50260020134B2DE9C9
:10252000F0411C68074604F12805284616468846EF
:1025300000F0E2F83868A3884268C4E90A0223F090
:102540000403426843EA08039BB2A3801560721C2F
:10255000456008D043F04003A38031462046BDE8E3
:10256000F041FFF705BCBDE8F08100BF5C2600200C
:1025700038B500F1280504462846FFF771FBA3880B
:1025800023EA0101A180490606D52046FFF730FC69
:10259000A38823F04003A380A3889A0708D443F0BC
:1025A0000403A380E1882846BDE8384000F088B8DD
:1025B00038BD000038B5174C174A236812681969EE
:1025C000914225D2988810F004001BD0FFF72EF816
:1025D00023680546D88800F0BFF8012813D9206881
:1025E0002830FFF73DFB20688388C18843F004034F
:1025F0008380283000F064F82846FFF71BF8FFF7C7
:102600002BF9002038BD2846FFF714F80348F9E7F6
:102610000348F7E75C260020542600201002000241
:1026200007020002F8B5164B1C6806461CBB154B8A
:102630001B8813BB18B9BDE8F840FFF7BBBFFEF716
:10264000F5FF114D07462868283000F055F8286836
:10265000838823F0040383803146FFF789FB2A68CF
:10266000938843F0200393803846FEF7E3FFFFF79B
:10267000F3F82046F8BD054CFBE7054CF9E700BF31
:1026800034020020582600205C2600200D020003A2
:102690000E02000208B5084B4FF48071186800F074
:1026A000D4FD064B186030B100F58073C0E900001E
:1026B00008309842FAD108BD14260020D027002007
:1026C0000B4B1A6802EBC10330B55C68A34206D11C
:1026D000084C4FF000432568CB402B43236052F851
:1026E00031305A68C0E900325A681060586030BD15
:1026F000D027002044020020D0E900231A6002689D
:1027000053600023C0E90033094B30F8222C1B68CA
:1027100003EBC20359688B4208D106494FF00043CE
:1027200023FA02F20B6823EA02030B60704700BF32
:10273000D027002044020020054B186830B1054B1B
:102740001B68B0FA80F003EBC0004068704700BF20
:1027500044020020D0270020054B1B6803EBC00378
:1027600000205A68934200D1704701305268F9E75F
:10277000D0270020134B10B54FF4DC711868124CB1
:1027800000F063FD2060D0B14FF4DC72002108F04E
:1027900088FB0E4A2368C2E900221C33002110681E
:1027A00023F8121C4468C3E90004013144680A2973
:1027B0002360436003F12C03F1D1002010BD0448D5
:1027C000FCE700BF14260020DC270020D4270020CF
:1027D000010600022DE9F8430E46BDF82030904670
:1027E000002A4CD04FF6FB7293424AD800294AD0B7
:1027F000002B48D00433DFF8B0909DB26943D9F87C
:10280000000000F022FD074600283ED0FEF70EFF34
:102810001F4B5C689C4209D1FEF70CFF3946D9F882
:10282000000000F029FD1B48BDE8F883D4E900232F
:102830001A6022685360012324F8183CA4F10803AD
:1028400024F8145C44E90233002504F10803C4E9C8
:10285000023324F8166C44F81C7C24F80C5C24F831
:102860000A6C24F8105C24F80E5CC4E90044FEF7FE
:10287000E1FE34F8123CC8F800302846D4E7064898
:10288000D2E70648D0E70648CEE70648CCE700BFC7
:10289000D4270020040600020C06000203060002F2
:1028A0000D06000202060002142600202DE9F74F53
:1028B000044698460D469146FEF7B8FE624B4FF02F
:1028C0002C0AD3F800B00AFB04FA0BEB0A04074603
:1028D000A388002B00F0B2802389D8F8002015F0DF
:1028E0000106A3F1040313D1934200F2A98004EB83
:1028F0004602138A002B31D10C9B6BB9534B544ABF
:10290000002E14BF1E4616463846FEF793FE4AE0D8
:102910009342ECD24F4EF7E74F4B1B88002B40F011
:1029200091804E4B0C9A1B680193B01C04EBC000C5
:102930004FF400510430FFF7F1FD3846FEF77AFE00
:10294000FEF78AFFFEF772FE019B9A885106074642
:1029500006D522F040029A80414ED5E7013B138212
:1029600005F00303012B36D021D3032B3AD03D4889
:1029700008F0FCFE3C4808F081FFED4305F001053E
:10298000AB1CDB00E21804339068234498424ED01D
:102990004FF400512838FFF7EBFD3846FEF74AFEAA
:1029A000FEF75AFF0026304603B0BDE8F08FA3893A
:1029B000E1885A1C8A4208BF0022A28122895BF862
:1029C0000A105343680701EB030A17D596B9CB5891
:1029D000C9F80030D1E7A38903B9E388013BA3819B
:1029E000A389EBE7E389E1885A1C8A4208BF0022E9
:1029F000E281E3E7D9F80020CA50BEE756B9524455
:102A0000514652F8046C4846324608F03FFAC8F87E
:102A10000060B2E7D8F800205046494608F036FA80
:102A20002289D8F8003092444AF8043CA5E704EB28
:102A300045040026238A0133238265E70B4E63E7B2
:102A40000B4E61E70B4E5FE7DC2700201606000205
:102A50001D06000215060002582600205C260020F4
:102A60000706000218EC000800EF00080A06000242
:102A70001F06000206060002092813B50FD881B10F
:102A80007AB114687CB113B1094C24686CB9009315
:102A900013460A460021FFF709FF02B010BD0548A2
:102AA000FBE70548F9E70548F7E70548F5E700BF04
:102AB000340200200E0600020F060002100600027B
:102AC000180600021FB5092803920ED879B182B109
:102AD00013B10A4A126872B900930A4603AB032184
:102AE000FFF7E4FE05B05DF804FB0548FAE705488A
:102AF000F8E70548F6E70548F4E700BF3402002090
:102B00000E06000212060002130600020906000269
:102B10000928F8B504463BD8FEF788FD1D4B2C224A
:102B20001D686243AB180746998839B39C6903F165
:102B300014018C4228D1196A03F11C048C4223D160
:102B40009E6A03F124018E421ED11E8A598A3144A5
:102B5000DE88B1421AD10026AF58AE500E4A9E8090
:102B60005568C3E907252C605460FEF763FD0B4BE5
:102B700039461868BDE8F84000F07EBB084C38467E
:102B8000FEF758FD2046F8BD064CF8E7064CF6E780
:102B9000064CF7E7DC270020D4270020142600206D
:102BA0000A060002080600020B06000205060002E3
:102BB00038B5114B114C18684FF4A071C4E90044AA
:102BC00000F043FB0E4B1860A0B1002308301D46F7
:102BD000226820F8023C516820F8085CC0E9002116
:102BE00001335168142B0860506000F11000EFD1E0
:102BF000002038BD0348FCE714260020E027002011
:102C0000E82700200007000273B506460D4614466B
:102C10005AB3884227D8FEF709FD154A53689342F4
:102C20000AD1FEF707FD134C134914480023009303
:102C3000224600F05FFF13E0D3E90012116019682B
:102C40004A60012223F8066C23F8082C23F8045C60
:102C5000C3E9003333F8023C2360FEF7EBFC0024A9
:102C6000204602B070BD064CDEE7064CF8E700BF18
:102C7000E027002003070002F8C3B2A15DEF0008BF
:102C8000080700020207000213282DE9F34724D8A1
:102C90001D4B04011F68FEF7C9FC3B5B3E198146D2
:102CA000CBB106F108084FF0000AF568A8451DD120
:102CB000164B5A680025C6E902324846C2F8008021
:102CC000C3F804803D53FEF7B5FCFEF7C5FD28466A
:102CD00002B0BDE8F087FEF7ADFC002300930C4A7C
:102CE0000C490D4800F006FF0948F1E745F810AC23
:102CF0000821A5F12800FFF73BFC35F8243C43F000
:102D0000400325F8243CD0E7E8270020E0270020F6
:102D100001070002F8C3B2A15DEF000813282DE9F6
:102D2000F34188460BD9002300932F4A2F4930489E
:102D30002D4C00F0DFFE204602B0BDE8F0812D4BA7
:102D400004011D68FEF772FC2E192C5B074624B99E
:102D5000FEF770FC00942346E7E773882BB1013B34
:102D60007380FEF767FC0024E5E7B8F1000F38D068
:102D7000214B1C688CB12148214C08F0F7FC2148FC
:102D800008F07CFD3846FEF755FC002300932246F0
:102D90001649174800F0AEFECDE71B4B1B883BB130
:102DA00016481A4C08F0E2FC194808F067FDE9E7FC
:102DB000184B1D68082170184246AE61FFF7AEFB44
:102DC0003846FEF737FCFEF747FDAB885B06B2D509
:102DD000FEF72CFCAB88104C23F040030746AB8079
:102DE000D0E70E4CCEE700BF01070002F8C3B2A146
:102DF0005DEF0008E82700203402002018EC0008EE
:102E0000050700021CEF00085826002006070002F4
:102E10003CEF00085C2600200707000204070002C0
:102E20001328F7B511D81F4B04011E68FEF7FEFBEF
:102E30003519345B074654B9FEF7FCFB0094234672
:102E4000194A1A491A4800F055FE17480DE06B88D8
:102E5000AA889A420BD1FEF7EDFB00230093154A96
:102E60001249134800F046FE124803B0F0BDEA686C
:102E700005F108018A424FF000040DD0A2F12800AC
:102E800042F8104C0821FFF773FB3846FEF7D2FBDF
:102E9000FEF7E2FC2046E8E701336B80FEF7CAFB51
:102EA000F8E700BFE827002001070002F8C3B2A13D
:102EB0005DEF0008080700020E490A6830B5B2B994
:102EC0000D4B0B600D49C1E9001108331546086828
:102ED00003F8085C446843F8042CC3E90004013299
:102EE0004468142A2360436003F11803EFD10020E3
:102EF00030BD00BF480200204C020020EC2700201B
:102F0000184B1B6837B505460BB9FFF7D5FF3DB326
:102F1000FEF78CFB144A536893420BD1FEF78AFBF1
:102F200000230093114A1249124800F0E3FD0F48B4
:102F300003B030BDD3E900121160196800244A6063
:102F4000012223F8064C03F8082C9C81C3E90134C4
:102F50001B6053F8043C2B60FEF76CFB2046E7E750
:102F60000548E5E748020020EC270020031D000289
:102F7000F8C3B2A15DEF0008021D00021328F7B5E7
:102F80000BD8164B18251F684543FEF74FFB7A5D9B
:102F90007E1903461AB9FEF74DFB114C0AE0F168A1
:102FA00006F108028A4201D174885CB11846FEF726
:102FB00041FB0C4C0C490D4800230093224600F0C5
:102FC00099FD08E00A4B5968C6E902310A605A6067
:102FD0007C55FEF72FFB204603B0F0BD48020020D1
:102FE000011D0002091D0002F8C3B2A15DEF000837
:102FF000EC27002013282DE9F3410F460BD90023BD
:103000000093354A35493648334C00F073FD20466D
:1030100002B0BDE8F081334B182444431D68FEF72D
:1030200005FB2E192C5D804624B9FEF703FB0094A6
:103030002346E6E72C4B1C681CB1FEF7FBFA2B4C31
:10304000E5E72B4B1D6873883BB901237380EB8840
:103050003561B382FEF7EEFAD9E73269AA4202D1AE
:1030600001337380F6E71FB9FEF7E4FA214CCEE78F
:10307000214B1B888BB12148214C08F077FB21485C
:1030800008F0FCFB4046FEF7D5FA002300932246E9
:103090001249134800F02EFDB9E7E988D388EE61A4
:1030A0008B4202D91046FEF74BFE082170183A46B3
:1030B000FFF734FA4046FEF7BDFAFEF7CDFBAB88CA
:1030C0005B06A4D5FEF7B2FAAB880F4C23F04003A1
:1030D000AB80FEF7AFFAD8E7011D0002F8C3B2A13A
:1030E0005DEF00084802002034020020051D0002A8
:1030F0005C260020041D00025826002018EC000861
:10310000061D000270EF0008071D0002284B2DE984
:10311000F3411826804646431F68FEF787FAB8F148
:10312000130F07EB0604054601D8BB5D6BB92846B3
:10313000FEF780FA002300931E4A1F491F4800F043
:10314000D9FC1C4802B0BDE8F0816388002BEED0AA
:103150001B49226909688A42E9D1013B9BB263801D
:1031600013B1FEF767FA1EE0A18AD3888B4202D022
:103170001046FEF7E5FDE36804F10802934214D01F
:103180000122A3F12800628033F8222C2061A28260
:10319000002443F80C4C0821FFF7EAF92846FEF713
:1031A00049FAFEF759FB0020CCE72846D9E700BFD3
:1031B00048020020011D0002F8C3B2A15DEF000823
:1031C0005C26002038B530F0030515D000F003046C
:1031D0000C1B24F00304B4F50C7F0DD9284600F035
:1031E00011F9A4F50C7205F50C71284600F01AF9D6
:1031F000003018BF012038BD0120FCE770B50D4C30
:10320000D4E90051491B2846FFF7DCFF064638B9D0
:10321000094B08341D601D46083454F8042C0AB9C3
:10322000304670BD54F8081C2868521A00F0FAF8AD
:10323000F2E700BF840403081426002008B500F05C
:103240000EFAB0FA80F0400908BD38B504460D46C4
:1032500049B148B100F0E1FB30B929462046BDE84C
:10326000384000F0F8B9084638BD13460A461946FA
:1032700000F022B900F052BA38B50C46054668B1E4
:1032800061B100F000FC012803D021462846FFF779
:10329000D5FF10F1FF3018BF012038BD0120FCE739
:1032A00000F5F8707047000008B9034B186800314A
:1032B00018BF012100F09ABA142600200368FBB160
:1032C000B3FA83F3C3F11B03C218182B1279B2FAB5
:1032D00082F215DCC2F11F02032A11DC02EB830328
:1032E000083350F823305868DA6808339A4200D11E
:1032F000704752F8041C5268884238BF0846F5E708
:1033000000207047F0B54C68B4FA84F2C2F11F0691
:10331000C2F11D0324FA03F31C2EA3F104032CDCD9
:1033200007680125C2F11B0205FA06F63E4387181D
:1033300006603E799D4003EB8203354300EB830337
:103340003D711D6A01F108027DB9C1E902221962CD
:10335000D0F8B8310133C0F8B831D0F8BC31083CEE
:103360001C44C0F8BC410020F0BD2B4653F8086F48
:10337000C1E902637260AA60EAE74FF0FF30F3E749
:10338000F0B54D68B5FA85F4C4F11D0325FA03F3D1
:103390001A1F0B46C4F11B0653F8087F9F424FEAE1
:1033A0008603134417D000EB8303CA681C6AA1424A
:1033B00004BFA2F108041C627A60CB681F60D0F8D9
:1033C000B831013BC0F8B831D0F8BC315B1B0833D1
:1033D000C0F8BC31F0BD0833002140F8231081193A
:1033E000012707FA02F30A7922EA03030B71002B83
:1033F000E5D1C4F11F0407FA04F4076827EA0404BE
:103400000460DCE710B5044648B14FF40C720021AB
:1034100007F047FD04F5DA70FFF772FD10BD4FF0BD
:10342000FF30FBE72DE9F8430C46074620B94FF083
:10343000FF363046BDE8F8830029F8D001F00305D7
:10344000521B22F003051B4BA5F128029A42EED82D
:103450004FF0FF31D0F8B401FFF7CCFD064600284D
:10346000E7D124F00304D7F8B031656023604FF052
:10347000090904F1080304F11008183DC7F8B04128
:103480004146A060C4F80C90236165613846FFF79F
:1034900039FF06460028CAD1636923F0010308EB0F
:1034A000030248F80380C2F80490D7F8B401FFF78C
:1034B0002DFEBEE7D7FFFF7F2DE9F849054618B975
:1034C00000242046BDE8F8894B1E0B42F8D10429A0
:1034D00038BF04210F46002A00F0A280082A38BF16
:1034E000082203324FF0FF31D5F8B40122F0030671
:1034F000FFF780FD0028E3D13A1D3244B2FA82F38F
:10350000C3F11D0101238B40013A1344B3FA83FC3C
:10351000CCF11F02CCF11D01CB401D2AA3F1040305
:1035200000F39580A5EB0C014FF0FF34C97F04FA3E
:1035300003F3194010D1CCF1200C286804FA0CF4E4
:10354000044068D0601E20EA0404B4FA84F4C4F194
:1035500020022C1B94F820104B1E23EA0103B3FA1F
:1035600083F3C3EB8203183355F82380B8F1000FBF
:103570006FD041462846FFF703FF7C1E08F1080381
:103580001C447F423C40A34205D0A4EB0803182B07
:1035900048D844F8048CD8F80430A4EB0801591A30
:1035A0008A1B0F2A0DD933445B1AA119C8F80430BD
:1035B00044F806804A6022F0010228468950FFF74D
:1035C000A1FED5F8C031D8F80460D5F8C41105F5CE
:1035D000DC700133C5F8C031D0E9062312F1010BCC
:1035E00043F1000CD0E908233144C5F8C411C0E907
:1035F00006BC12EB060B43F1000CD5F8C83199421A
:10360000C0E908BC88BFC5F8C811D8F8043043F039
:103610000103C8F80430D5F8B401FFF777FD50E78F
:1036200008225EE7D8F8043044F8088CA4F10807B3
:10363000A7EB08029B1A44F8043C23F0010341461F
:10364000FF50C8F80420FFF75DFEB846A3E7044624
:10365000E1E74446DFE70A460421FFF72DBF2DE9E5
:10366000F041064618B94FF0FF30BDE8F08100295F
:1036700052D051F8044CE00748BFA1F10804D6F835
:10368000B4014FF0FF31FFF7B5FC0028EBD16568BE
:1036900025F001056560D6F8C031013BC6F8C031A0
:1036A000D6F8C43106F5DC715B1BC6F8C431D1E92C
:1036B0000A23571C43F10008D1E90C23C1E90A7819
:1036C000571943F10008C1E90C7827687B68DA07CD
:1036D000254408D439463046FFF752FE62687B68BD
:1036E00013447B603C466B68DB070AD429463046AE
:1036F000FFF746FE63686D681D44656025F00105AF
:10370000254421462C603046FFF7FCFDD6F8B40175
:10371000FFF7FCFC0020A8E70846A6E72DE9F843E0
:10372000074614460E4621B91146BDE8F843FFF797
:1037300092BF22B9FFF793FF2046BDE8F883072A1E
:1037400056F8043C86BFD11D21F007010821DA0795
:103750004CBFA6F108099946D9F8045025F0010597
:103760004D44A5EB060841450BD9FFF774FF04460D
:103770000028E1D03146424607F088FB3146384602
:10378000D8E7A8EB01040F2C01D83446D4E7A5EB09
:1037900004084FF0FF31C8F80090D0F8B401FFF7EB
:1037A00029FC0028F1D1D9F804301B1BC9F80430DA
:1037B0006968CB0716D42144C8F804103846294656
:1037C000FFF7DEFDD8F8045025F001054544C5F8A3
:1037D000008041463846FFF795FDD7F8B401FFF762
:1037E00095FCD2E7C8F80440F1E700002DE9F74F57
:1037F0000446D0F8B0610D4611B1414807F0B6FF5C
:103800004FF0FF31D4F8B401FFF7F4FB002874D176
:1038100035B13C4FDFF81C81DFF81C91002E49D1F7
:10382000394807F0A3FF394807F0A0FF384807F0F0
:103830009DFF384807F09AFFD4F8B821D4F8BC119E
:10384000354807F093FFD4F8C021D4F8C4113348A9
:1038500007F08CFF324807F089FF04F5F072D2E9D7
:103860000001CDE9000104F5F473D3E900232D48EC
:1038700007F07CFF04F5E872D2E90001CDE9000110
:1038800004F5EC73D3E90023274807F06FFFD4F861
:10389000C811264807F06AFF2046FFF70FFD0146D2
:1038A000234807F063FFD4F8B40103B0BDE8F04F3C
:1038B000FFF72CBC384607F059FF404607F056FF8B
:1038C000DFF878A0DFF878B006F108056A6812F032
:1038D000010F0CBF4B46534622F0010229465846C1
:1038E00007F044FFD5E900230AB1092B03D023F0E8
:1038F00001031D44EAE7366890E703B0BDE8F08FA6
:10390000A4EF0008D1F00008BEEF0008CEEF0008D9
:10391000F3EF000818F0000824F0000837F0000862
:103920004BF000085AF0000871F0000889F0000818
:10393000B2F00008F1F0000891EF000898EF0008DD
:1039400014F1000803688B4281BF4B0900EB830030
:1039500001F01F01406886BFC84000F00100002050
:10396000704703688B420CD94A090430012301F0E7
:103970001F0103FA01F150F8223023EA010340F855
:103980002230704730B550F8043B1F335B090022EA
:103990009A42054602D14FF0FF3012E050F8041B66
:1039A0004C1C01D10132F3E7CB4300245B0804F146
:1039B000010007D10123A3400B4300EB42102B6011
:1039C000013830BD0446F1E710B504468068FFF7C2
:1039D000D9FF0028AABFD4E90023002002FB003051
:1039E00010BD4368CB1A0168B3FBF1F201FB123141
:1039F00010B571B9846823689A420CD211462046EA
:103A0000FFF7A0FF20B120461146FFF7AAFF0120D3
:103A100010BD0020FCE70846FAE72DE9F0410C460E
:103A2000FFF73EFC802C06460ED800231F01F259FA
:103A3000A24224D3F519FDF7F9FDD5E901329A42E6
:103A4000804603D3FDF7F6FD002403E0EC6824B9BB
:103A5000FDF7F0FD2046BDE8F0812046FFF7B4FFFA
:103A6000044650B1F35983700023C370AB684DF620
:103A7000DE62013302800434AB604046E8E7013384
:103A8000042BD3D1E0E7F8B50D46FFF709FC35F874
:103A9000042C4DF6DE639A4204461FD115F8022C21
:103AA00000231E01A1598A4215D8FDF7BFFD3444F9
:103AB0000746291FE068FFF794FF012801BFA368AC
:103AC00003F1FF33A3600446384618BF0024FDF716
:103AD000B1FD2046F8BD0133042BE2D10024F8E704
:103AE0004B1E0344494283428CBF01EA0300084055
:103AF0007047000037B5044C246814B1069D00954A
:103B0000A047002003B030BDF42700202DE9F0438A
:103B100085B02C4B01932C4D2C4B00932C4A2D4BF4
:103B20002D492E482E4FDFF8BC8007F01FFE2B6872
:103B3000986807F059F80024A9463E467B68A342DE
:103B40000ADC284FDFF8A4800024F368A3421EDCBF
:103B5000002005B0BDE8F083D7F800C020010CEBD1
:103B60000002013491895568D389019592680092C9
:103B700001F0010158F821205CF800101A4807F004
:103B8000F5FDD9F80030986807F02EF8D6E7B06850
:103B9000210143185D689A8902959D680195DB892A
:103BA000009302F0010257F8223042582146404665
:103BB00007F0DCFDD9F80030986807F015F80134FB
:103BC000C3E700BFA1F1000838000020ADF10008F4
:103BD00082F100087EF10008F1F2000887F1000888
:103BE0002C04002024F10008BBF10008B5F1000806
:103BF00008B500220121054807F0B8FD044B1B68F9
:103C0000986806F0F1FF002008BD00BF2CF1000805
:103C1000380000202DE9F84F1F4F204CD7E900ABAA
:103C200000258046A4F84050AB4503DDB4F8406061
:103C30000F2E0BD9D7E9029A0025AA4503DDB4F867
:103C400040600F2E15D91548BDE8F88F2B0140466E
:103C50005AF80390FCF72EFC41460246484607F00E
:103C6000C1FE20B9731C44F82690A4F840300135F9
:103C7000DAE72B01404659F80370FCF71BFC41467C
:103C80000246384607F0AEFE20B9731C44F8267091
:103C9000A4F840300135D0E72C0400203C0400207B
:103CA0002DE9F04792B01023024602A9684600931E
:103CB000FDF7C2FA009C3CB921462046FFF726FFDB
:103CC000204612B0BDE8F087314E029FD6E9009A37
:103CD0004FF00008D0450EDBD6E9028900264E459C
:103CE00014DB39462B4807F041FD2B4B1B689868C5
:103CF00006F07AFF49E04D46384659F8101BFCF7AC
:103D0000CFFB00283AD008F10108E3E745463846E2
:103D100058F8101BFCF7C4FB80B30136DFE7032C17
:103D200011D11E490398FCF7BBFB024658B9014666
:103D3000049807F013FF12A9EA8941F8440DA86816
:103D400007F0A4F821E0AC68134E1548DFF8548062
:103D5000214607F00BFD3368986806F045FF2746BB
:103D6000EA89E31B9A4210DD14F8011B404607F074
:103D7000FDFC3368986806F037FFF1E7AB89002B4C
:103D8000CDD1AB6802A9204698474FF0FF3497E7A2
:103D90002C04002062F100083800002045F10008E2
:103DA00049F100085CF10008044A054B9B1A1FBF4B
:103DB00004491B090A604B600020704720EB000893
:103DC000B0EB00082C04002008B507F0E7FC034B1B
:103DD0001B689868BDE8084006F006BF3800002060
:103DE00070B50546FCF766FB2C460646631B9E42F3
:103DF00000DC70BD14F8010BFFF7E6FFF6E738B5FD
:103E000005460024AC4200DB38BD0820FFF7DCFF8C
:103E10000134F7E72DE9F04190F84060064404468C
:103E200030460F46FCF746FB80463846FCF742FB1F
:103E300005463846FFF7D4FF3046FFF7D1FF40462E
:103E4000FFF7DDFF94F840302B4484F840302046E3
:103E5000FCF730FB28440023261823543346F21A7B
:103E600090450CDC6842B8F1000FA8BFA0EB080039
:103E70002A4639463044BDE8F04107F0C5BD5A1B1B
:103E800012F8012C03F8012DE9E70720FFF79CBF8A
:103E900070B5044600F1410500F24116294620465E
:103EA000FCF7FEFAA8B14035B542F7D194F841517C
:103EB000013504EB8513013340220021184606F03A
:103EC000F0FF05F003054022214607F09DFD84F830
:103ED000415170BD2DE9F043D3B001AC4FF4A17254
:103EE0000021204606F0DDFFAD48DFF8CC82AD4F63
:103EF000FFF776FFAC48FFF773FF0026354606F064
:103F00006BFF431C012B0090F9D9FF28F7D015F067
:103F1000FF0F1ED015F47F4F02D145EA0025EEE7D2
:103F2000000440EA050940EA06051B2D00F0E9807F
:103F300031D8092D00F0CC800ED8082D00F00E816C
:103F400094F840303E2B72D869462046FFF762FF56
:103F50006FE0A9460546E8E70A2D01D00D2DEFD107
:103F60002378A3B1914807F001FC3B68986806F0FC
:103F70003BFE2046FFF78CFF2046FFF791FE4022D4
:103F80000021204606F08DFF002384F8403086484B
:103F9000FFF726FF4DE045456FD036D8844B9D4254
:103FA000CED12046FCF786FA94F84030834205468D
:103FB00006DAC61A4FF000094E4553DC84F840502B
:103FC000DFF8F8910026B54252DC4022002120465D
:103FD00006F067FF94F84151002684F840600335ED
:103FE00005F0030504EB851140224131204607F01E
:103FF0000BFD204684F84151FCF75CFA84F8400040
:104000002046FFF7EDFE354679E76A4B9D4212D018
:1040100003F580339D4293D194F840303BB1013B8E
:10402000012084F84030FFF7EAFE002569E0FFF741
:104030002CFF0026E7E72046FCF73CFA94F84030D6
:104040008342F4DA01335FFA89F084F84030FFF7F5
:10405000BBFEC9F30720FFF7B7FEC9F30740FFF720
:10406000B3FEE2E72020FFF7AFFE09F10109A3E765
:104070004846FFF7B5FE0136A5E72046FCF71AFAD9
:1040800094F840308342054606DAC61A4FF000091C
:104090004E4512DC84F84050DFF820910026B542EE
:1040A00011DC40220021204606F0FBFE94F841512D
:1040B000002684F84060053592E72020FFF784FE53
:1040C00009F10109E4E74846FFF78AFE0136E6E711
:1040D00094F84030002BAAD00025204614F8039015
:1040E000E554FFF797FDB0F8402094F84030012ADE
:1040F000064604F8039006D1016820461944FFF7EC
:1041000089FE2E46FBE692D9284807F02FFB3B6834
:10411000986806F069FDB6F84030AB4215DC2348DC
:1041200007F024FB3B68986806F05EFD1E48FFF729
:1041300057FE2046FFF754FE2046FCF7BBF994F8E3
:104140004030C01AFFF75BFE73E756F82500FFF713
:1041500047FE0920FFF738FE0135DCE794F84060A0
:10416000002E3FF464AF26443046FCF7A3F98146A5
:104170002846FFF729FE3046FFF732FE2020FFF7E2
:1041800023FE09F10100FFF73AFE3146701E07F0E9
:1041900021FC94F84030013B84F8403045E700BFF3
:1041A000FDF100083800002017F20008CBEF0008EE
:1041B0001B0041001B0043001B00420023F20008CB
:1041C00007B5FFF7F1FD00220A23CDE900230449DA
:1041D00004484FF41063FDF725F903B05DF804FBC4
:1041E000D53E0008F0F1000808B5FDF7D1FE00202B
:1041F00008BD08B501210020FFF756F8002008BDD2
:1042000010B5FDF7CDF9FDF7EFF8012810D8012022
:10421000FDF7F0F80446FDF7B5F9074B02462146D5
:10422000064807F0A3FA064B1B68986806F0DCFC0A
:104230004FF0FF3010BD00BF27F2000834F2000835
:10424000380000200F492DE9D0438C68D0E906677B
:10425000234623B904B104628860BDE8D083D3E962
:104260000689B04579EB0702F4DA1A6A3AB1D2E965
:104270000689B04579EB070C01DA1346E9E70262DB
:104280001862EAE7000000202DE9F84F304D4FF0AA
:10429000FF364FF0FF386FF000492F6917B100204B
:1042A000BDE8F88F31462868FDF716F96868FDF714
:1042B000E3F801282CD1AC683CB3236A2762AB60D9
:1042C000FDF760F9D4E90623904271EB03038246BF
:1042D0008B4617DBE3680BB120699847A368DA07C0
:1042E00008D5C4E9068923F00203A3602046FFF73E
:1042F000A9FFE0E763681AEB030A4BF1000BC4E97E
:1043000006ABF3E72046FFF79DFF6868FDF7C0F8AE
:10431000FDF738F9824668688B46FDF7ADF801284D
:10432000BBD1AB687BB1D3E906674F4508BF4645B3
:1043300009D0B2457BEB070308DAA6EB0A066868EA
:10434000FDF7A6F8A9E74FF0FF36F8E70026F6E7F5
:10435000000000202DE9F04F3E4D89B06868FDF760
:104360008BF80128044641D1FDF73EF801281ED8FC
:104370002046FDF73FF80446FDF704F9364B069357
:10438000364B0593364B0493364B0393364B0293CF
:10439000364B0193364B00930246364B3648214646
:1043A00007F0E4F9354B1B68986806F01DFCAC6813
:1043B000DFF8DC80324E334FE4B9FDF715F8012801
:1043C00011D80120FDF716F80646FDF7DBF8294B5A
:1043D0000094024631462C4807F0C8F9274B1B6869
:1043E000986806F001FC6868FDF752F8002009B0F3
:1043F000BDE8F08FFCF7F8FF012829D80120FCF771
:10440000F9FF8146FDF7BEF8211D91E806502368AB
:10441000002B08BF434612F0020F14BFB246BA4643
:1044200012F0010FA269009314BFB346BB46CDE959
:1044300005B2CDE9011C0F4B0246CDE903EA49461E
:10444000124807F093F90D4B1B68986806F0CCFBF7
:10445000246AB1E700000020C5F20008CEF200088F
:10446000D3F20008D9F20008DDF20008E5F20008F6
:10447000EBF200086CF2000892F20008380000200D
:104480008BF200088FF2000829F30008F6F200080A
:1044900084F2000873B5164D002201212846FDF76D
:1044A0000FF82E4608B3281DFCF7DAFFB0B1002440
:1044B0000A23CDE9004322464FF400630D490E481C
:1044C000FCF7B0FFE86018B12C61204602B070BD67
:1044D0006868FCF7E9FF4FF0FF336B603068FDF769
:1044E00013F84FF0FF303060F0E74FF0FF30EDE7AA
:1044F000000000208942000879F2000838B5074B17
:104500005C6805460CB9204638BDA1682846FBF713
:10451000C7FF0028F7D02468F4E700BF800400201C
:10452000F0B5214D85B02868FCF7A6FF70B11F4E8D
:10453000AA681F491F4807F019F93368986806F000
:1045400053FBAB682BB92868FCF7A2FF002005B02D
:10455000F0BD194B0393194B0293194B0193194B5F
:104560000093194A194B1A491A481B4F07F0FEF8D5
:104570003368986806F038FB6C68002CE3D0A36AB7
:104580000393636A0293236A0193E3690093636967
:10459000D4E90212384607F0E9F83368986806F063
:1045A00023FB2468E9E700BF8004002038000020D6
:1045B00056F3000868F30008BFF30008C5F30008CD
:1045C000CAF30008D3F3000885F300087EF300085F
:1045D0008EF3000899F30008DCF30008036870B557
:1045E00005460BB9002427E04368002BFAD02C20A5
:1045F000FCF796FF04460028F4D02C22002106F098
:1046000050FC2B68A3606B682361104EAB6863603D
:10461000EB68E3603068FCF72FFF90B12868FFF784
:104620006DFF336850B97268226018467460FCF7F9
:104630002FFFB3680133B360204670BD1846FCF706
:1046400027FF2046FCF778FFCCE700BF800400205E
:10465000F8B50A48FCF704FF064640B1084F094C7C
:10466000E41B24090025AC4207EB051001D13046BC
:10467000F8BDFFF7B3FF0135F5E700BF8004002068
:10468000B0EB0008C0EB0008F8B50F46044608B9C7
:10469000002542E01820FCF743FF05460028F7D02C
:1046A0001F4E1822002106F0FCFB3068FCF7E4FEE8
:1046B000B8B12046FFF722FF044678B1C3681A0557
:1046C00001D5836953B96369DB0712D423699B69F8
:1046D0007BB16068984740B90123A3623068FCF75A
:1046E000D7FE2846FCF728FFD2E7636943F00103B1
:1046F000636123691B682BB139466068984708B924
:104700000223EAE7636A306801336362A3692B60BE
:10471000A561C5E90147FCF7BBFE2846F8BD00BF0F
:104720008004002037B51C4690B19AB1A3B18468CB
:10473000E4070FD44568286950B1446864B106980D
:1047400000906868A047002802DD2B6A03442B62B2
:1047500003B030BD0020FBE72046F9E737B51C4623
:1047600098B1A2B1ABB1846814F0030411D04568CC
:10477000286950B1846864B1069800906868A047C1
:10478000002802DDEB690344EB6103B030BD104645
:10479000FBE72046F9E70000F8B5104C0E4601464D
:1047A0000F48174606F0E2FF2368986806F01CFAE7
:1047B0003546AB1B9F4208DC0A4807F05FF82368C8
:1047C0009868BDE8F84006F00FBA15F8010B06F03E
:1047D000E5FF2368986806F007FAEAE7380000204A
:1047E000DFF40008CCEF00082DE9F041114CDFF8B0
:1047F00050800E4601461048174606F0B7FF236862
:10480000986806F0F1F93546AB1B9F4208DC0B486F
:1048100007F034F82368BDE8F041986806F0E4B981
:1048200015F8011B404606F0A1FF2368986806F0C2
:10483000DBF9E9E738000020DFF40008CCEF0008DE
:104840005CF10008032838B50D4617D0FCF7CCFD05
:10485000012810D80120FCF7CDFD0446FCF792FE9C
:10486000354B02462146354806F080FF344B1B6825
:10487000986806F0B9F94FF0FF3035E08C6831499F
:104880002046FBF70DFE08B32F492046FBF708FE34
:1048900058B32E492046FBF703FE40B3FCF7A4FDB6
:1048A000012810D80120FCF7A5FD0446FCF76AFE9C
:1048B000214B02462146264806F058FF204B1B6834
:1048C000986806F091F96FF001000DE004466D68FC
:1048D00020492846FBF7E4FD58B91F4B93F8A42460
:1048E00064F3010283F8A42438BD0124EFE7022415
:1048F000EDE71A492846FBF7D3FD28B9164B93F884
:10490000A42464F38302EDE7FCF76EFD012810D8C0
:104910000120FCF76FFD0446FCF734FE064B02460F
:1049200021460F4806F022FF054B1B68986806F0E9
:104930005BF96FF00200D7E72BF4000841F500089F
:10494000380000205EF5000863F50008D0F5000887
:1049500069F5000889F500088C0400208CF5000832
:104960008FF5000838B5144C0546A06AFCF784FDA5
:10497000F0B12169C9B104F1A40007F05AF8A0B15F
:10498000606940B1A3699D4228BF1D462A4604F1D3
:10499000A40106F07BFA206AE561FCF7A9FD002579
:1049A000A06AFCF775FD284638BD4FF0FF35F7E7E4
:1049B0004FF0FF35F7E700BF8C0400202DE9F047EA
:1049C000104C80460025A14604F1A40A276B8FB144
:1049D000A06B78B1E26B514606F049FA064648B939
:1049E000142303FB059542460749686BB8473046D8
:1049F000BDE8F0870135062D04F11404E6D14FF02F
:104A0000FF36F4E78C0400203005002073B5124E09
:104A10004FF0FF330093024605464FF480630021B8
:104A20007068FFF77FFE041E0ADD96F8A43403F0D9
:104A30000303012B07D1224629460848FFF7ACFEA5
:104A4000204602B070BD022BFAD122462946034807
:104A5000FFF7CAFEF4E700BF8C0400205FF40008F3
:104A600073B52C4C02212068FFF70EFE26466060CD
:104A700000284BD1FCF7B8FC012813D80120FCF723
:104A8000B9FC0546FCF77EFD234B22682946CDE99B
:104A900000320246214806F069FE214B1B689868E7
:104AA00006F0A2F8002002B070BDD6F8A834012BA1
:104AB00019D12CB94FF480622146284606F0F1F94D
:104AC0002819FFF7A3FF0444002C08DD2046FFF758
:104AD00075FF18B12046FFF745FF00B90024736841
:104AE000002BE2D1DEE74FF480620021284606F079
:104AF000D8F92846FFF78AFF041EF0DDFFF75EFFB6
:104B00000028ECD02046FFF72DFFE8E7002406F14F
:104B1000A405E4E78C04002009F400083FF4000831
:104B20003800002073B5124E00920B460246044630
:104B30000D4670680021FFF711FE002814DD96F87D
:104B4000A434C3F38103012B06D12A462146094828
:104B5000FFF722FE002009E0022BFBD12A46214666
:104B60000448FFF741FEF5E74FF0FF3002B070BD9B
:104B70008C04002039F400082DE9F0470F469046D8
:104B80009A46DDE90895064620B94FF0FF352846DC
:104B9000BDE8F087002A39D01F4C2946606AFCF72F
:104BA0009BFC0028F1D0A06AFCF766FC60B10021F4
:104BB000206AC4F81890C4E90267C4E9048AFCF7C3
:104BC0008BFCA06AFCF764FC2A4639463046FFF7A6
:104BD000A9FF98B14FF0FF35A06AFCF74DFC48B132
:104BE0000023A06AC4E90233C4E90433C4E90633EC
:104BF000FCF74EFC606AFCF77BFCC8E72946206A9C
:104C0000FCF76AFC0028E5D0E569E5E72A46BDE83F
:104C1000F047FFF787BF00BF8C040020F0B5831E6C
:104C2000012BA3B00F4617D9FCF7DEFB012810D8E3
:104C30000120FCF7DFFB0446FCF7A4FC2D4B0246E9
:104C400021462D4806F092FD2C4B1B68986805F014
:104C5000CBFF4FF0FF3439E003284FF0400402ADA2
:104C600008BF8E6822464FF00001284618BF002674
:104C700006F017F921467B68214A12A806F006FEC5
:104C800012A8FBF717FC4FF47A73CDE900430146F5
:104C90002B46324612A8FFF76FFF0446C8B9FCF74F
:104CA000A3FB012812D80120FCF7A4FB0646FCF761
:104CB00069FCCDE9004502460E4B1248314606F02C
:104CC00055FD0E4B1B68986805F08EFF204623B0FB
:104CD000F0BDFCF789FB0128F8D80120FCF78AFB1E
:104CE0000546FCF74FFC034B02462946064806F0F2
:104CF0003DFDE6E722F4000841F5000838000020F9
:104D00003FF90008ECF4000814F50008F0B5ABB169
:104D1000A1B10C4F00264FF0140C0CFB06752C6B48
:104D20004CB9AC6B3CB9C5E90E122B63059BE8622C
:104D30006B632046F0BD0136062EEED14FF0FF30FA
:104D4000F8E700BF8C04002073B5524E40F2AC422D
:104D50000021304606F0A5F830464F4B40F8243B82
:104D600001221146FCF7ACFB3546C0B9FCF73CFB11
:104D7000012811D80120FCF73DFB0446FCF702FC9A
:104D8000464B009302462146454806F0EFFC454B52
:104D90001B68986805F028FF4FF0FF3078E000228C
:104DA000012106F12000FCF78BFBE0B9FCF71CFBAE
:104DB000012811D80120FCF71DFB0446FCF7E2FB9B
:104DC000364B009302462146354806F0CFFC354B62
:104DD0001B68986805F008FF3348FCF795FB4FF017
:104DE000FF30686254E006F12800FCF739FBE0B9B7
:104DF000FCF7FAFA012811D80120FCF7FBFA044667
:104E0000FCF7C0FB254B009302462146274806F0DD
:104E1000ADFC244B1B68986805F0E6FE2448FCF7BF
:104E200073FB4FF0FF332B62D6E700240A23CDE952
:104E3000004322464FF400631E491F48FCF7F2FA74
:104E4000E0B9FCF7D1FA012811D80120FCF7D2FA19
:104E50000446FCF797FB114B009302462146174886
:104E600006F084FC0F4B1B68986805F0BDFE1448E3
:104E7000FCF71AFB4FF0FF33AB62CFE796F8A43490
:104E8000012262F3010362F3830386F8A43420460F
:104E900002B070BD8C04002065F400081AF400080C
:104EA0006BF4000838000020B00400208DF40008E6
:104EB000AC040020614A0008AFF40008B6F4000812
:104EC000B40400200C4B0D490D4A10B5196018B9F7
:104ED0005A600C4A9A600EE0046804B11C60406895
:104EE0005A6000B15860002098601868884202D16A
:104EF00059689142EDD010BD140000201D1B000820
:104F0000191B0008251B0008044A53681BB9C2E995
:104F10000001184670474FF0FF30704738090020F5
:104F2000034B5B6813B15B6803B1184709207047F6
:104F300038090020054B5B681BB11B680BB110B131
:104F40001847092070470120704700BF380900202A
:104F500037B500F0EBFB0546FCF746FA012811D8FF
:104F60000120FCF747FA0446FCF70CFB074B0095C1
:104F700002462146064806F0F9FB064B1B68986876
:104F800005F032FE002003B030BD00BFF6F500088A
:104F900004F6000838000020034B1A6812B1002004
:104FA0001860704704207047980A0020F7B50D4636
:104FB00016461F460446FBF77DFA4FF4FA63CDE927
:104FC0000073014633462A462046FFF7D5FDC0430D
:104FD000C00F03B0F0BD37B50D460446FBF76AFAC3
:104FE00000234FF4FA62CDE9003201462A462046FA
:104FF000FFF7C2FDC043C00F03B030BD0D2A73B52B
:1050000015461ED94C7BFCF7EFF90128A4F13004BA
:1050100011D80120FCF7EEF90646FCF7B3FA0A4B6B
:10502000009402463146094806F0A0FB084B1B6875
:10503000986805F0D9FD032C02BF064B0122C3F886
:105040005421284602B070BD53F60008F9F8000854
:10505000380000204009002030B5402491B00546BA
:1050600022460021684605F01CFF2B46084A2146CF
:10507000684606F00BFC07496846FFF7ACFF04469C
:105080004FF4FA60FCF7E0F9204611B030BD00BFE4
:10509000CDF80008D9F800082F4B1B682DE9F3471D
:1050A00081460E461746002B51D0002851D03F298B
:1050B0004FDC2A4CA36C002B4BD0DFF8B480D8F81F
:1050C0000000FCF7D9F98022002104F14C0005F022
:1050D000E8FE234B234A0096802104F14C0006F0A1
:1050E000D5FB04F14C00FBF7E5F9002E00F14C056F
:1050F00025440EDDDFF87CA009F1FF3905EB4606FB
:10510000284619F8012F5146023506F0F3FBB54247
:10511000F6D11548FBF7CEF920440D2380F84C302A
:105120001148FBF7C7F90023014600930F4A019786
:105130000D48FFF721FD0446D8F80000FCF7A8F958
:10514000002CACBF0020022002B0BDE8F087042094
:10515000FAE70120F8E700BF980A00204009002084
:10516000F7F7000800F800088C090020D9F80008BB
:105170009C0A002006F8000810B5402490B0224692
:105180000021684605F08DFE0023054A2146684649
:1051900006F07CFB03496846FFF71DFF10B010BD09
:1051A000C6F80008D9F8000808B5FFF7E5FFFFF7D3
:1051B000E3FF07490748FFF70EFF42F21070FCF7C4
:1051C00043F9FFF7D9FFFFF7D7FF012008BD00BF64
:1051D000B4F80008BEF800082DE9F04FB5B000287B
:1051E00000F0CE81BB4B0393D3F80090B9F1000FD0
:1051F00040F0C88104460FCCB74D05F10C060FC630
:105200000FCC0FC60FCC0FC694E80700B34BB44CBD
:1052100086E807000D22B349B348D5E9006BAF68B3
:10522000CDF80090D5E90B8AFFF770FDCDF800901E
:10523000AE4BAF49AF480822FFF768FDCDF80890A4
:10524000029BC5F85431FFF7AFFFFFF795FF4022EF
:10525000002124A805F025FE0123A74A402124A807
:1052600006F014FB214624A8FFF7B5FE40220021DA
:1052700024A805F016FE0123A04A402124A806F028
:1052800005FB214624A8FFF7A6FE4022002124A802
:1052900005F007FE402324AA99499A48FFF786FEA5
:1052A00020B1994924A806F0C4FB80B9402200210E
:1052B00014A805F0F6FD944B944A402114A806F07A
:1052C000E5FA214614A8FFF786FEFFF76DFF002FD1
:1052D00033D04022002124A805F0E3FD402324AA76
:1052E00021468B48FFF762FE40228146002114A828
:1052F00005F0D7FD3B46874A3F2114A806F0C6FAC1
:10530000B9F1000F04D014A924A806F092FBA0B9AB
:105310000020FFF7A1FE4022002114A805F0C1FDE6
:105320003B467D4A3F2114A806F0B0FA214614A856
:10533000FFF751FE0120FFF78FFE0120FFF78CFEE3
:105340004022002E00F00681002124A805F0A9FDCE
:10535000402324AA71497248FFF728FE4022814663
:10536000002114A805F09DFD33466E4A3F2114A884
:1053700006F08CFAB9F1000F04D014A924A806F0A5
:1053800058FB70B94022002114A805F08AFD33466D
:10539000654A3F2114A806F079FA214614A8FFF7C0
:1053A0001AFEBBF1000F2DD04022002124A805F0E9
:1053B00078FD402324AA21465C48FFF7F7FD4022F0
:1053C0008146002114A805F06CFD5B46584A3F2138
:1053D00014A806F05BFAB9F1000F04D014A924A8B0
:1053E00006F027FB70B94022002114A805F059FDF2
:1053F0003F215B464F4A14A806F048FA214614A8FC
:10540000FFF7E9FDB8F1000F36D04022002114A8C3
:1054100005F047FD4022002124A805F042FD40226E
:10542000002104A805F03DFD402314AA214642486E
:10543000FFF7BCFDCDF800A0814643463F4A40211E
:1054400024A806F023FAB9F1000F04D024A914A867
:1054500006F0EFFA80B94022002104A805F021FDF2
:105460004021CDF800A04346354A04A806F00EFAC4
:10547000214604A8FFF7AFFD4022002124A805F033
:1054800010FD01232F4A402124A806F0FFF92146F0
:1054900024A8FFF7A0FD4022002124A805F001FD6B
:1054A0000123294A402124A806F0F0F9214624A826
:1054B000FFF791FD4FF0100924492548FFF78BFDB8
:1054C000002850D14FF47A70FBF7BEFFB9F1010903
:1054D000F2D1B5E6980A002040090020FD4F0008EF
:1054E000D9F8000871F600087FF60008D5550008C5
:1054F00088F6000891F600089FF60008AEF600084E
:10550000BAF60008C3F60008D0F60008E1F6000875
:10551000F0F60008FBF6000806F7000813F700088D
:1055200019F7000823F7000833F7000850F70008C0
:105530005DF700086CF700087BF7000885F70008A6
:1055400092F70008A1F70008AEF70008BAF70008C4
:10555000C2F70008314614A805F0A3FC194914A8A5
:1055600006F038FA19E74FF01009D5F854315BB955
:105570004FF47A70FBF768FFB9F10109F5D15FE6E6
:1055800001201BE0052019E00124AC64FBF72CFF8F
:10559000A04210D82046FBF72DFF0446FBF7F2FF90
:1055A000094B02462146094806F0E0F8084B1B6803
:1055B000986805F019FB039B00201D6035B0BDE81D
:1055C000F08F00BF45F7000861F60008CDF700082E
:1055D00038000020072A2DE9FF418846144617D8D5
:1055E000FBF702FF012803D9002004B0BDE8F081D9
:1055F0000120FBF7FFFE0546FBF7C4FFCDE901489C
:10560000424B009302464248294606F0AFF816E0A6
:105610003A21404606F0D1F90546B0B9FBF7E4FE61
:105620000128E1D80120FBF7E5FE0446FBF7AAFFBD
:10563000364B009302463748214606F097F8364B22
:105640001B68986805F0D0FACEE7013500260A21DC
:1056500015F8013B303BDAB2092A15D97700BB1C9B
:105660002B44A044434512D9FBF7BEFE0128BBD80A
:105670000120FBF7BFFE0446FBF784FF234B00939A
:10568000024621462548D8E701FB0636E0E7802E92
:1056900012DDFBF7A9FE0128A6D80120FBF7AAFE20
:1056A0000446FBF76FFF8022184B0093CDE901629F
:1056B000214602461A48A8E780220021194805F031
:1056C000F0FB1948C5B1BFB100216A5C392A94BF0B
:1056D000303A373AD3B26A1800EB610C5278392A63
:1056E00094BF303A373A02F00F02023142EA031215
:1056F0008F428CF8CC20E8DC056C25B13346094A92
:10570000406C0021A84720466FE700BF40F6000824
:105710000BF8000838F800083800002059F8000895
:105720007DF800080C0A00204009002008B5074B4E
:1057300007480022C3E90022064A9A60FBF790FE60
:1057400005490648BDE80840FFF7DEBB40090020D8
:105750009C0A0020E8F80008DCF80008EEF80008D1
:105760001FB5084B084C0393084B02930223CDE965
:105770000033074A4021204606F088F8204604B04E
:1057800010BD00BF5AF90008A00A002066F9000801
:1057900044F900087FB51D4B1C689CBB01251D60AA
:1057A000FBF70CFFFBF720FEA84214D82846FBF7B6
:1057B00021FE0546FBF7E6FE0646FFF7D1FF144B38
:1057C000009032462946134805F0D0FF124B1B6863
:1057D000986805F009FAFEF75DFEFEF7F1FCFEF7AA
:1057E00037FFFFF7B1FA0D4B039304A80C4B40F8B9
:1057F000083DFFF767FBFFF7ABFB05F039F82046E4
:1058000004B070BD4FF0FF34F9E700BFE00A00209C
:105810001FF9000829F90008380000203915000890
:105820002115000890F83C30012B10B534D0CB681E
:105830008A681A4C23F4407313434A6823F4806344
:1058400013430A6823F4006313430A6923F4805363
:1058500013434A6923F4005313438A6A23F44043F1
:1058600013438A6923F4702343EA02430268A24285
:105870000CD14C6A23F4700343EA0453CC69096ADF
:1058800023F08073234323F000730B4353640023FE
:1058900080F83C30184610BD0220FCE7002C014087
:1058A00037B51E4DAB6DDA00044618D500F0D2FBBB
:1058B000B0F5007F23D1802C29D9A02C8CBF0220E9
:1058C0000120174A136823F007030343136013688A
:1058D00003F00703181A18BF012003B030BDAB6DE9
:1058E00043F08053AB65AB6D03F080530193019B94
:1058F00000F0B0FBAB6D23F08053AB65D8E7802C94
:1059000007D808D0A4F1700358425841D9E70020C5
:10591000D7E70320D5E70220D3E700BF00100240FD
:10592000002002402F4B9A6812F00C0F10B509D0DE
:105930009A6802F00C020C2A2DD1DA6802F00302F8
:10594000012A28D11A682849120755BFD3F8942094
:105950001A68C2F30322C2F3031251F82220996895
:1059600011F00C0F0CBF10460020996801F00C01DB
:105970000C2930D1DC68D868C0F30210411C04F057
:105980000300022819D0032826D0B2FBF1F2D86810
:10599000C0F3062017E09A6802F00C02042A07D030
:1059A0009A6802F00C02082A04D110480022DCE7B1
:1059B0000F48FBE700200246D7E7DA680C48C2F33D
:1059C0000622B0FBF1F0DB68C3F3416301335043BF
:1059D0005B00B0FBF3F010BDDA680448C2F30622A6
:1059E000EFE700BF00100240AC04030800127A0089
:1059F0000024F40003682DE9F3410546D80639D5A3
:105A0000AB4CA36813F00C0F62D12368990703D540
:105A1000AB690BB901207FE02368286A1A0756BFDB
:105A2000D4F8943023681B0903F0F00398423AD964
:105A3000FFF736FF0028EDD1236843F00803236009
:105A400023682A6A23F0F003134323606368EA693A
:105A500023F47F4343EA02236360FFF763FFA368F5
:105A6000944AC3F30313D35CD840934B18600020CF
:105A700001F02CFA2B68D80761D42B68990700F144
:105A8000A9802B681A0700F1E7802B685B0700F1FB
:105A900015812B689A0600F17C81AA6A002A40F0E1
:105AA000A381002038E0236843F0080323602368C3
:105AB00023F0F003034323606368EA6923F47F4320
:105AC00043EA02236360FFF7EBFE0028C5D0A1E79D
:105AD000AB6923B3236843F00103236003F0CEFBDB
:105AE000064623689B0711D5236843F0080323600B
:105AF00023682A6A23F0F003134323606368EA698A
:105B000023F47F4343EA02236360B3E703F0B6FB69
:105B1000801B0228E5D9032002B0BDE8F08123688C
:105B200023F00103236003F0A9FB064623689F07C7
:105B3000A0D503F0A3FB801B0228F7D9EBE75C4C50
:105B4000A36803F00C03082B09D0A36803F00C032F
:105B50000C2B0BD1E36803F00303032B06D123685E
:105B60009A038AD56B68002B87D153E76B68B3F52E
:105B7000803F10D1236843F48033236003F07EFB21
:105B8000064623689B033FF578AF03F077FB801B45
:105B90006428F6D9BFE7B3F5A02F04D1236843F4F6
:105BA00080232360E6E7226822F4803222602268A4
:105BB00022F480222260002BE0D103F05FFB064636
:105BC00023689F037FF559AF03F058FB801B6428BF
:105BD000F6D9A0E7364CA36803F00C03042B09D0D8
:105BE000A36803F00C030C2B13D1E36803F0030349
:105BF000022B0ED123685E0503D5EB68002B3FF422
:105C000009AF63682A6923F0F85343EA02636360CB
:105C100037E7EB687BB1236843F48073236003F0BC
:105C20002DFB064623685805EBD403F027FB801BA9
:105C30000228F7D96FE7236823F48073236003F009
:105C40001DFB0646236859057FF51BAF03F016FBC5
:105C5000801B0228F6D95EE76B69154C9BB1D4F81E
:105C6000943043F00103C4F8943003F007FB064678
:105C7000D4F894309F073FF508AF03F0FFFA801B7C
:105C80000228F5D947E7D4F8943023F00103C4F88B
:105C9000943003F0F3FA0646D4F8943098077FF571
:105CA000F4AE03F0EBFA801B0228F5D933E700BF0E
:105CB000001002409404030824000020794CA36DD6
:105CC000D90027D4A36D43F08053A365A36D03F0DF
:105CD00080530193019B0127734E3368DA051BD56E
:105CE000AB68012B29D1D4F8903043F00103C4F8FC
:105CF000903003F0C3FA41F288380646D4F8903069
:105D0000980740D5002F3FF4C4AEA36D23F0805315
:105D1000A365BEE60027DFE7336843F48073336092
:105D200003F0ACFA80463368DB05D9D403F0A6FA59
:105D3000A0EB08000228F6D9EDE6052B06D1D4F831
:105D4000903043F00403C4F89030CCE7D4F89020AE
:105D500022F00102C4F89020D4F8902022F004022E
:105D6000C4F89020002BC4D103F088FA41F288389F
:105D70000646D4F890309907C4D503F07FFA801B0B
:105D80004045F6D9C7E603F079FA801B4045B5D9FE
:105D9000C1E66B6A434C9BB1D4F8983043F00103E1
:105DA000C4F8983003F06AFA0646D4F898309B0796
:105DB0003FF573AE03F062FA801B0228F5D9AAE61C
:105DC000D4F8983023F00103C4F8983003F056FA61
:105DD0000646D4F898309F077FF55FAE03F04EFA81
:105DE000801B0228F5D996E62E4CA36803F00C031D
:105DF0000C2B3FF40FAE2368022A23F0807323603C
:105E000036D103F03BFA0646236898012AD4D5E937
:105E10000D23DB0643EA0223EA6A13432A6B013AA5
:105E200043EA0213EA6B5208013A43EA42532A6CEE
:105E30005208013A43EA4263E360236843F0807307
:105E40002360E36843F08073E36003F017FA0546CC
:105E5000236899013FF525AE03F010FA401B022894
